{
  "_format": "hh-sol-artifact-1",
  "contractName": "MyNFT",
  "sourceName": "contracts/MyNFT.sol",
  "abi": [
    {
      "inputs": [],
      "stateMutability": "nonpayable",
      "type": "constructor"
    },
    {
      "anonymous": false,
      "inputs": [
        {
          "indexed": true,
          "internalType": "address",
          "name": "owner",
          "type": "address"
        },
        {
          "indexed": true,
          "internalType": "address",
          "name": "approved",
          "type": "address"
        },
        {
          "indexed": true,
          "internalType": "uint256",
          "name": "tokenId",
          "type": "uint256"
        }
      ],
      "name": "Approval",
      "type": "event"
    },
    {
      "anonymous": false,
      "inputs": [
        {
          "indexed": true,
          "internalType": "address",
          "name": "owner",
          "type": "address"
        },
        {
          "indexed": true,
          "internalType": "address",
          "name": "operator",
          "type": "address"
        },
        {
          "indexed": false,
          "internalType": "bool",
          "name": "approved",
          "type": "bool"
        }
      ],
      "name": "ApprovalForAll",
      "type": "event"
    },
    {
      "anonymous": false,
      "inputs": [
        {
          "indexed": false,
          "internalType": "uint256",
          "name": "_fromTokenId",
          "type": "uint256"
        },
        {
          "indexed": false,
          "internalType": "uint256",
          "name": "_toTokenId",
          "type": "uint256"
        }
      ],
      "name": "BatchMetadataUpdate",
      "type": "event"
    },
    {
      "anonymous": false,
      "inputs": [
        {
          "indexed": false,
          "internalType": "uint256",
          "name": "_tokenId",
          "type": "uint256"
        }
      ],
      "name": "MetadataUpdate",
      "type": "event"
    },
    {
      "anonymous": false,
      "inputs": [
        {
          "indexed": true,
          "internalType": "address",
          "name": "previousOwner",
          "type": "address"
        },
        {
          "indexed": true,
          "internalType": "address",
          "name": "newOwner",
          "type": "address"
        }
      ],
      "name": "OwnershipTransferred",
      "type": "event"
    },
    {
      "anonymous": false,
      "inputs": [
        {
          "indexed": true,
          "internalType": "address",
          "name": "from",
          "type": "address"
        },
        {
          "indexed": true,
          "internalType": "address",
          "name": "to",
          "type": "address"
        },
        {
          "indexed": true,
          "internalType": "uint256",
          "name": "tokenId",
          "type": "uint256"
        }
      ],
      "name": "Transfer",
      "type": "event"
    },
    {
      "inputs": [
        {
          "internalType": "address",
          "name": "to",
          "type": "address"
        },
        {
          "internalType": "uint256",
          "name": "tokenId",
          "type": "uint256"
        }
      ],
      "name": "approve",
      "outputs": [],
      "stateMutability": "nonpayable",
      "type": "function"
    },
    {
      "inputs": [
        {
          "internalType": "address",
          "name": "owner",
          "type": "address"
        }
      ],
      "name": "balanceOf",
      "outputs": [
        {
          "internalType": "uint256",
          "name": "",
          "type": "uint256"
        }
      ],
      "stateMutability": "view",
      "type": "function"
    },
    {
      "inputs": [],
      "name": "deploymentAddress",
      "outputs": [
        {
          "internalType": "address",
          "name": "",
          "type": "address"
        }
      ],
      "stateMutability": "view",
      "type": "function"
    },
    {
      "inputs": [
        {
          "internalType": "uint256",
          "name": "tokenId",
          "type": "uint256"
        }
      ],
      "name": "getApproved",
      "outputs": [
        {
          "internalType": "address",
          "name": "",
          "type": "address"
        }
      ],
      "stateMutability": "view",
      "type": "function"
    },
    {
      "inputs": [
        {
          "internalType": "uint256",
          "name": "tokenIds",
          "type": "uint256"
        }
      ],
      "name": "getData",
      "outputs": [
        {
          "internalType": "string",
          "name": "",
          "type": "string"
        }
      ],
      "stateMutability": "view",
      "type": "function"
    },
    {
      "inputs": [],
      "name": "getDeploymentAddress",
      "outputs": [
        {
          "internalType": "address",
          "name": "",
          "type": "address"
        }
      ],
      "stateMutability": "view",
      "type": "function"
    },
    {
      "inputs": [
        {
          "internalType": "address",
          "name": "owner",
          "type": "address"
        },
        {
          "internalType": "address",
          "name": "operator",
          "type": "address"
        }
      ],
      "name": "isApprovedForAll",
      "outputs": [
        {
          "internalType": "bool",
          "name": "",
          "type": "bool"
        }
      ],
      "stateMutability": "view",
      "type": "function"
    },
    {
      "inputs": [
        {
          "internalType": "address",
          "name": "recipient",
          "type": "address"
        },
        {
          "internalType": "string",
          "name": "tokenURI",
          "type": "string"
        }
      ],
      "name": "mintNFT",
      "outputs": [
        {
          "internalType": "uint256",
          "name": "",
          "type": "uint256"
        }
      ],
      "stateMutability": "nonpayable",
      "type": "function"
    },
    {
      "inputs": [],
      "name": "name",
      "outputs": [
        {
          "internalType": "string",
          "name": "",
          "type": "string"
        }
      ],
      "stateMutability": "view",
      "type": "function"
    },
    {
      "inputs": [],
      "name": "owner",
      "outputs": [
        {
          "internalType": "address",
          "name": "",
          "type": "address"
        }
      ],
      "stateMutability": "view",
      "type": "function"
    },
    {
      "inputs": [
        {
          "internalType": "uint256",
          "name": "tokenId",
          "type": "uint256"
        }
      ],
      "name": "ownerOf",
      "outputs": [
        {
          "internalType": "address",
          "name": "",
          "type": "address"
        }
      ],
      "stateMutability": "view",
      "type": "function"
    },
    {
      "inputs": [],
      "name": "renounceOwnership",
      "outputs": [],
      "stateMutability": "nonpayable",
      "type": "function"
    },
    {
      "inputs": [
        {
          "internalType": "address",
          "name": "from",
          "type": "address"
        },
        {
          "internalType": "address",
          "name": "to",
          "type": "address"
        },
        {
          "internalType": "uint256",
          "name": "tokenId",
          "type": "uint256"
        }
      ],
      "name": "safeTransferFrom",
      "outputs": [],
      "stateMutability": "nonpayable",
      "type": "function"
    },
    {
      "inputs": [
        {
          "internalType": "address",
          "name": "from",
          "type": "address"
        },
        {
          "internalType": "address",
          "name": "to",
          "type": "address"
        },
        {
          "internalType": "uint256",
          "name": "tokenId",
          "type": "uint256"
        },
        {
          "internalType": "bytes",
          "name": "data",
          "type": "bytes"
        }
      ],
      "name": "safeTransferFrom",
      "outputs": [],
      "stateMutability": "nonpayable",
      "type": "function"
    },
    {
      "inputs": [
        {
          "internalType": "address",
          "name": "operator",
          "type": "address"
        },
        {
          "internalType": "bool",
          "name": "approved",
          "type": "bool"
        }
      ],
      "name": "setApprovalForAll",
      "outputs": [],
      "stateMutability": "nonpayable",
      "type": "function"
    },
    {
      "inputs": [
        {
          "internalType": "bytes4",
          "name": "interfaceId",
          "type": "bytes4"
        }
      ],
      "name": "supportsInterface",
      "outputs": [
        {
          "internalType": "bool",
          "name": "",
          "type": "bool"
        }
      ],
      "stateMutability": "view",
      "type": "function"
    },
    {
      "inputs": [],
      "name": "symbol",
      "outputs": [
        {
          "internalType": "string",
          "name": "",
          "type": "string"
        }
      ],
      "stateMutability": "view",
      "type": "function"
    },
    {
      "inputs": [
        {
          "internalType": "uint256",
          "name": "tokenId",
          "type": "uint256"
        }
      ],
      "name": "tokenURI",
      "outputs": [
        {
          "internalType": "string",
          "name": "",
          "type": "string"
        }
      ],
      "stateMutability": "view",
      "type": "function"
    },
    {
      "inputs": [
        {
          "internalType": "address",
          "name": "from",
          "type": "address"
        },
        {
          "internalType": "address",
          "name": "to",
          "type": "address"
        },
        {
          "internalType": "uint256",
          "name": "tokenId",
          "type": "uint256"
        }
      ],
      "name": "transferFrom",
      "outputs": [],
      "stateMutability": "nonpayable",
      "type": "function"
    },
    {
      "inputs": [
        {
          "internalType": "address",
          "name": "newOwner",
          "type": "address"
        }
      ],
      "name": "transferOwnership",
      "outputs": [],
      "stateMutability": "nonpayable",
      "type": "function"
    }
  ],
  "bytecode": "0x60806040523480156200001157600080fd5b506040518060400160405280600d81526020017f53616b7368616d417373657473000000000000000000000000000000000000008152506040518060400160405280600581526020017f534b53484d000000000000000000000000000000000000000000000000000000815250816000908051906020019062000096929190620001e7565b508060019080519060200190620000af929190620001e7565b505050620000d2620000c66200011960201b60201c565b6200012160201b60201c565b30600960006101000a81548173ffffffffffffffffffffffffffffffffffffffff021916908373ffffffffffffffffffffffffffffffffffffffff160217905550620002fc565b600033905090565b6000600760009054906101000a900473ffffffffffffffffffffffffffffffffffffffff16905081600760006101000a81548173ffffffffffffffffffffffffffffffffffffffff021916908373ffffffffffffffffffffffffffffffffffffffff1602179055508173ffffffffffffffffffffffffffffffffffffffff168173ffffffffffffffffffffffffffffffffffffffff167f8be0079c531659141344cd1fd0a4f28419497f9722a3daafe3b4186f6b6457e060405160405180910390a35050565b828054620001f590620002c6565b90600052602060002090601f01602090048101928262000219576000855562000265565b82601f106200023457805160ff191683800117855562000265565b8280016001018555821562000265579182015b828111156200026457825182559160200191906001019062000247565b5b50905062000274919062000278565b5090565b5b808211156200029357600081600090555060010162000279565b5090565b7f4e487b7100000000000000000000000000000000000000000000000000000000600052602260045260246000fd5b60006002820490506001821680620002df57607f821691505b60208210811415620002f657620002f562000297565b5b50919050565b612e4b806200030c6000396000f3fe608060405234801561001057600080fd5b506004361061012c5760003560e01c80638da5cb5b116100ad578063c3adb64c11610071578063c3adb64c1461032f578063c87b56dd1461034d578063e985e9c51461037d578063eacabe14146103ad578063f2fde38b146103dd5761012c565b80638da5cb5b1461029d57806395d89b41146102bb578063a22cb465146102d9578063b5f8e1f9146102f5578063b88d4fde146103135761012c565b806323b872dd116100f457806323b872dd146101fb57806342842e0e146102175780636352211e1461023357806370a0823114610263578063715018a6146102935761012c565b80630178fe3f1461013157806301ffc9a71461016157806306fdde0314610191578063081812fc146101af578063095ea7b3146101df575b600080fd5b61014b60048036038101906101469190611e22565b6103f9565b6040516101589190611ee8565b60405180910390f35b61017b60048036038101906101769190611f62565b610453565b6040516101889190611faa565b60405180910390f35b6101996104b4565b6040516101a69190611ee8565b60405180910390f35b6101c960048036038101906101c49190611e22565b610546565b6040516101d69190612006565b60405180910390f35b6101f960048036038101906101f4919061204d565b61058c565b005b6102156004803603810190610210919061208d565b6106a4565b005b610231600480360381019061022c919061208d565b610704565b005b61024d60048036038101906102489190611e22565b610724565b60405161025a9190612006565b60405180910390f35b61027d600480360381019061027891906120e0565b6107ab565b60405161028a919061211c565b60405180910390f35b61029b610863565b005b6102a5610877565b6040516102b29190612006565b60405180910390f35b6102c36108a1565b6040516102d09190611ee8565b60405180910390f35b6102f360048036038101906102ee9190612163565b610933565b005b6102fd610949565b60405161030a9190612006565b60405180910390f35b61032d600480360381019061032891906122d8565b610973565b005b6103376109d5565b6040516103449190612006565b60405180910390f35b61036760048036038101906103629190611e22565b6109fb565b6040516103749190611ee8565b60405180910390f35b6103976004803603810190610392919061235b565b610b0e565b6040516103a49190611faa565b60405180910390f35b6103c760048036038101906103c2919061243c565b610ba2565b6040516103d4919061211c565b60405180910390f35b6103f760048036038101906103f291906120e0565b610be2565b005b606061040482610c66565b610443576040517f08c379a000000000000000000000000000000000000000000000000000000000815260040161043a906124e4565b60405180910390fd5b61044c826109fb565b9050919050565b6000634906490660e01b7bffffffffffffffffffffffffffffffffffffffffffffffffffffffff1916827bffffffffffffffffffffffffffffffffffffffffffffffffffffffff191614806104ad57506104ac82610ca7565b5b9050919050565b6060600080546104c390612533565b80601f01602080910402602001604051908101604052809291908181526020018280546104ef90612533565b801561053c5780601f106105115761010080835404028352916020019161053c565b820191906000526020600020905b81548152906001019060200180831161051f57829003601f168201915b5050505050905090565b600061055182610d89565b6004600083815260200190815260200160002060009054906101000a900473ffffffffffffffffffffffffffffffffffffffff169050919050565b600061059782610724565b90508073ffffffffffffffffffffffffffffffffffffffff168373ffffffffffffffffffffffffffffffffffffffff161415610608576040517f08c379a00000000000000000000000000000000000000000000000000000000081526004016105ff906125d7565b60405180910390fd5b8073ffffffffffffffffffffffffffffffffffffffff16610627610dd4565b73ffffffffffffffffffffffffffffffffffffffff161480610656575061065581610650610dd4565b610b0e565b5b610695576040517f08c379a000000000000000000000000000000000000000000000000000000000815260040161068c90612669565b60405180910390fd5b61069f8383610ddc565b505050565b6106b56106af610dd4565b82610e95565b6106f4576040517f08c379a00000000000000000000000000000000000000000000000000000000081526004016106eb906126fb565b60405180910390fd5b6106ff838383610f2a565b505050565b61071f83838360405180602001604052806000815250610973565b505050565b60008061073083611224565b9050600073ffffffffffffffffffffffffffffffffffffffff168173ffffffffffffffffffffffffffffffffffffffff1614156107a2576040517f08c379a000000000000000000000000000000000000000000000000000000000815260040161079990612767565b60405180910390fd5b80915050919050565b60008073ffffffffffffffffffffffffffffffffffffffff168273ffffffffffffffffffffffffffffffffffffffff16141561081c576040517f08c379a0000000000000000000000000000000000000000000000000000000008152600401610813906127f9565b60405180910390fd5b600360008373ffffffffffffffffffffffffffffffffffffffff1673ffffffffffffffffffffffffffffffffffffffff168152602001908152602001600020549050919050565b61086b611261565b61087560006112df565b565b6000600760009054906101000a900473ffffffffffffffffffffffffffffffffffffffff16905090565b6060600180546108b090612533565b80601f01602080910402602001604051908101604052809291908181526020018280546108dc90612533565b80156109295780601f106108fe57610100808354040283529160200191610929565b820191906000526020600020905b81548152906001019060200180831161090c57829003601f168201915b5050505050905090565b61094561093e610dd4565b83836113a5565b5050565b6000600960009054906101000a900473ffffffffffffffffffffffffffffffffffffffff16905090565b61098461097e610dd4565b83610e95565b6109c3576040517f08c379a00000000000000000000000000000000000000000000000000000000081526004016109ba906126fb565b60405180910390fd5b6109cf84848484611512565b50505050565b600960009054906101000a900473ffffffffffffffffffffffffffffffffffffffff1681565b6060610a0682610d89565b6000600660008481526020019081526020016000208054610a2690612533565b80601f0160208091040260200160405190810160405280929190818152602001828054610a5290612533565b8015610a9f5780601f10610a7457610100808354040283529160200191610a9f565b820191906000526020600020905b815481529060010190602001808311610a8257829003601f168201915b505050505090506000610ab061156e565b9050600081511415610ac6578192505050610b09565b600082511115610afb578082604051602001610ae3929190612855565b60405160208183030381529060405292505050610b09565b610b0484611585565b925050505b919050565b6000600560008473ffffffffffffffffffffffffffffffffffffffff1673ffffffffffffffffffffffffffffffffffffffff16815260200190815260200160002060008373ffffffffffffffffffffffffffffffffffffffff1673ffffffffffffffffffffffffffffffffffffffff16815260200190815260200160002060009054906101000a900460ff16905092915050565b6000610bac611261565b610bb660086115ed565b6000610bc26008611603565b9050610bce8482611611565b610bd8818461182f565b8091505092915050565b610bea611261565b600073ffffffffffffffffffffffffffffffffffffffff168173ffffffffffffffffffffffffffffffffffffffff161415610c5a576040517f08c379a0000000000000000000000000000000000000000000000000000000008152600401610c51906128eb565b60405180910390fd5b610c63816112df565b50565b60008073ffffffffffffffffffffffffffffffffffffffff16610c8883611224565b73ffffffffffffffffffffffffffffffffffffffff1614159050919050565b60007f80ac58cd000000000000000000000000000000000000000000000000000000007bffffffffffffffffffffffffffffffffffffffffffffffffffffffff1916827bffffffffffffffffffffffffffffffffffffffffffffffffffffffff19161480610d7257507f5b5e139f000000000000000000000000000000000000000000000000000000007bffffffffffffffffffffffffffffffffffffffffffffffffffffffff1916827bffffffffffffffffffffffffffffffffffffffffffffffffffffffff1916145b80610d825750610d81826118da565b5b9050919050565b610d9281610c66565b610dd1576040517f08c379a0000000000000000000000000000000000000000000000000000000008152600401610dc890612767565b60405180910390fd5b50565b600033905090565b816004600083815260200190815260200160002060006101000a81548173ffffffffffffffffffffffffffffffffffffffff021916908373ffffffffffffffffffffffffffffffffffffffff160217905550808273ffffffffffffffffffffffffffffffffffffffff16610e4f83610724565b73ffffffffffffffffffffffffffffffffffffffff167f8c5be1e5ebec7d5bd14f71427d1e84f3dd0314c0f7b2291e5b200ac8c7c3b92560405160405180910390a45050565b600080610ea183610724565b90508073ffffffffffffffffffffffffffffffffffffffff168473ffffffffffffffffffffffffffffffffffffffff161480610ee35750610ee28185610b0e565b5b80610f2157508373ffffffffffffffffffffffffffffffffffffffff16610f0984610546565b73ffffffffffffffffffffffffffffffffffffffff16145b91505092915050565b8273ffffffffffffffffffffffffffffffffffffffff16610f4a82610724565b73ffffffffffffffffffffffffffffffffffffffff1614610fa0576040517f08c379a0000000000000000000000000000000000000000000000000000000008152600401610f979061297d565b60405180910390fd5b600073ffffffffffffffffffffffffffffffffffffffff168273ffffffffffffffffffffffffffffffffffffffff161415611010576040517f08c379a000000000000000000000000000000000000000000000000000000000815260040161100790612a0f565b60405180910390fd5b61101d8383836001611944565b8273ffffffffffffffffffffffffffffffffffffffff1661103d82610724565b73ffffffffffffffffffffffffffffffffffffffff1614611093576040517f08c379a000000000000000000000000000000000000000000000000000000000815260040161108a9061297d565b60405180910390fd5b6004600082815260200190815260200160002060006101000a81549073ffffffffffffffffffffffffffffffffffffffff02191690556001600360008573ffffffffffffffffffffffffffffffffffffffff1673ffffffffffffffffffffffffffffffffffffffff168152602001908152602001600020600082825403925050819055506001600360008473ffffffffffffffffffffffffffffffffffffffff1673ffffffffffffffffffffffffffffffffffffffff16815260200190815260200160002060008282540192505081905550816002600083815260200190815260200160002060006101000a81548173ffffffffffffffffffffffffffffffffffffffff021916908373ffffffffffffffffffffffffffffffffffffffff160217905550808273ffffffffffffffffffffffffffffffffffffffff168473ffffffffffffffffffffffffffffffffffffffff167fddf252ad1be2c89b69c2b068fc378daa952ba7f163c4a11628f55a4df523b3ef60405160405180910390a461121f838383600161194a565b505050565b60006002600083815260200190815260200160002060009054906101000a900473ffffffffffffffffffffffffffffffffffffffff169050919050565b611269610dd4565b73ffffffffffffffffffffffffffffffffffffffff16611287610877565b73ffffffffffffffffffffffffffffffffffffffff16146112dd576040517f08c379a00000000000000000000000000000000000000000000000000000000081526004016112d490612a7b565b60405180910390fd5b565b6000600760009054906101000a900473ffffffffffffffffffffffffffffffffffffffff16905081600760006101000a81548173ffffffffffffffffffffffffffffffffffffffff021916908373ffffffffffffffffffffffffffffffffffffffff1602179055508173ffffffffffffffffffffffffffffffffffffffff168173ffffffffffffffffffffffffffffffffffffffff167f8be0079c531659141344cd1fd0a4f28419497f9722a3daafe3b4186f6b6457e060405160405180910390a35050565b8173ffffffffffffffffffffffffffffffffffffffff168373ffffffffffffffffffffffffffffffffffffffff161415611414576040517f08c379a000000000000000000000000000000000000000000000000000000000815260040161140b90612ae7565b60405180910390fd5b80600560008573ffffffffffffffffffffffffffffffffffffffff1673ffffffffffffffffffffffffffffffffffffffff16815260200190815260200160002060008473ffffffffffffffffffffffffffffffffffffffff1673ffffffffffffffffffffffffffffffffffffffff16815260200190815260200160002060006101000a81548160ff0219169083151502179055508173ffffffffffffffffffffffffffffffffffffffff168373ffffffffffffffffffffffffffffffffffffffff167f17307eab39ab6107e8899845ad3d59bd9653f200f220920489ca2b5937696c31836040516115059190611faa565b60405180910390a3505050565b61151d848484610f2a565b61152984848484611950565b611568576040517f08c379a000000000000000000000000000000000000000000000000000000000815260040161155f90612b79565b60405180910390fd5b50505050565b606060405180602001604052806000815250905090565b606061159082610d89565b600061159a61156e565b905060008151116115ba57604051806020016040528060008152506115e5565b806115c484611ae7565b6040516020016115d5929190612855565b6040516020818303038152906040525b915050919050565b6001816000016000828254019250508190555050565b600081600001549050919050565b600073ffffffffffffffffffffffffffffffffffffffff168273ffffffffffffffffffffffffffffffffffffffff161415611681576040517f08c379a000000000000000000000000000000000000000000000000000000000815260040161167890612be5565b60405180910390fd5b61168a81610c66565b156116ca576040517f08c379a00000000000000000000000000000000000000000000000000000000081526004016116c190612c51565b60405180910390fd5b6116d8600083836001611944565b6116e181610c66565b15611721576040517f08c379a000000000000000000000000000000000000000000000000000000000815260040161171890612c51565b60405180910390fd5b6001600360008473ffffffffffffffffffffffffffffffffffffffff1673ffffffffffffffffffffffffffffffffffffffff16815260200190815260200160002060008282540192505081905550816002600083815260200190815260200160002060006101000a81548173ffffffffffffffffffffffffffffffffffffffff021916908373ffffffffffffffffffffffffffffffffffffffff160217905550808273ffffffffffffffffffffffffffffffffffffffff16600073ffffffffffffffffffffffffffffffffffffffff167fddf252ad1be2c89b69c2b068fc378daa952ba7f163c4a11628f55a4df523b3ef60405160405180910390a461182b60008383600161194a565b5050565b61183882610c66565b611877576040517f08c379a000000000000000000000000000000000000000000000000000000000815260040161186e90612ce3565b60405180910390fd5b8060066000848152602001908152602001600020908051906020019061189e929190611d35565b507ff8e1a15aba9398e019f0b49df1a4fde98ee17ae345cb5f6b5e2c27f5033e8ce7826040516118ce919061211c565b60405180910390a15050565b60007f01ffc9a7000000000000000000000000000000000000000000000000000000007bffffffffffffffffffffffffffffffffffffffffffffffffffffffff1916827bffffffffffffffffffffffffffffffffffffffffffffffffffffffff1916149050919050565b50505050565b50505050565b60006119718473ffffffffffffffffffffffffffffffffffffffff16611bbf565b15611ada578373ffffffffffffffffffffffffffffffffffffffff1663150b7a0261199a610dd4565b8786866040518563ffffffff1660e01b81526004016119bc9493929190612d58565b602060405180830381600087803b1580156119d657600080fd5b505af1925050508015611a0757506040513d601f19601f82011682018060405250810190611a049190612db9565b60015b611a8a573d8060008114611a37576040519150601f19603f3d011682016040523d82523d6000602084013e611a3c565b606091505b50600081511415611a82576040517f08c379a0000000000000000000000000000000000000000000000000000000008152600401611a7990612b79565b60405180910390fd5b805181602001fd5b63150b7a0260e01b7bffffffffffffffffffffffffffffffffffffffffffffffffffffffff1916817bffffffffffffffffffffffffffffffffffffffffffffffffffffffff191614915050611adf565b600190505b949350505050565b606060006001611af684611be2565b01905060008167ffffffffffffffff811115611b1557611b146121ad565b5b6040519080825280601f01601f191660200182016040528015611b475781602001600182028036833780820191505090505b509050600082602001820190505b600115611bb4578080600190039150507f3031323334353637383961626364656600000000000000000000000000000000600a86061a8153600a8581611b9e57611b9d612de6565b5b0494506000851415611baf57611bb4565b611b55565b819350505050919050565b6000808273ffffffffffffffffffffffffffffffffffffffff163b119050919050565b600080600090507a184f03e93ff9f4daa797ed6e38ed64bf6a1f0100000000000000008310611c40577a184f03e93ff9f4daa797ed6e38ed64bf6a1f0100000000000000008381611c3657611c35612de6565b5b0492506040810190505b6d04ee2d6d415b85acef81000000008310611c7d576d04ee2d6d415b85acef81000000008381611c7357611c72612de6565b5b0492506020810190505b662386f26fc100008310611cac57662386f26fc100008381611ca257611ca1612de6565b5b0492506010810190505b6305f5e1008310611cd5576305f5e1008381611ccb57611cca612de6565b5b0492506008810190505b6127108310611cfa576127108381611cf057611cef612de6565b5b0492506004810190505b60648310611d1d5760648381611d1357611d12612de6565b5b0492506002810190505b600a8310611d2c576001810190505b80915050919050565b828054611d4190612533565b90600052602060002090601f016020900481019282611d635760008555611daa565b82601f10611d7c57805160ff1916838001178555611daa565b82800160010185558215611daa579182015b82811115611da9578251825591602001919060010190611d8e565b5b509050611db79190611dbb565b5090565b5b80821115611dd4576000816000905550600101611dbc565b5090565b6000604051905090565b600080fd5b600080fd5b6000819050919050565b611dff81611dec565b8114611e0a57600080fd5b50565b600081359050611e1c81611df6565b92915050565b600060208284031215611e3857611e37611de2565b5b6000611e4684828501611e0d565b91505092915050565b600081519050919050565b600082825260208201905092915050565b60005b83811015611e89578082015181840152602081019050611e6e565b83811115611e98576000848401525b50505050565b6000601f19601f8301169050919050565b6000611eba82611e4f565b611ec48185611e5a565b9350611ed4818560208601611e6b565b611edd81611e9e565b840191505092915050565b60006020820190508181036000830152611f028184611eaf565b905092915050565b60007fffffffff0000000000000000000000000000000000000000000000000000000082169050919050565b611f3f81611f0a565b8114611f4a57600080fd5b50565b600081359050611f5c81611f36565b92915050565b600060208284031215611f7857611f77611de2565b5b6000611f8684828501611f4d565b91505092915050565b60008115159050919050565b611fa481611f8f565b82525050565b6000602082019050611fbf6000830184611f9b565b92915050565b600073ffffffffffffffffffffffffffffffffffffffff82169050919050565b6000611ff082611fc5565b9050919050565b61200081611fe5565b82525050565b600060208201905061201b6000830184611ff7565b92915050565b61202a81611fe5565b811461203557600080fd5b50565b60008135905061204781612021565b92915050565b6000806040838503121561206457612063611de2565b5b600061207285828601612038565b925050602061208385828601611e0d565b9150509250929050565b6000806000606084860312156120a6576120a5611de2565b5b60006120b486828701612038565b93505060206120c586828701612038565b92505060406120d686828701611e0d565b9150509250925092565b6000602082840312156120f6576120f5611de2565b5b600061210484828501612038565b91505092915050565b61211681611dec565b82525050565b6000602082019050612131600083018461210d565b92915050565b61214081611f8f565b811461214b57600080fd5b50565b60008135905061215d81612137565b92915050565b6000806040838503121561217a57612179611de2565b5b600061218885828601612038565b92505060206121998582860161214e565b9150509250929050565b600080fd5b600080fd5b7f4e487b7100000000000000000000000000000000000000000000000000000000600052604160045260246000fd5b6121e582611e9e565b810181811067ffffffffffffffff82111715612204576122036121ad565b5b80604052505050565b6000612217611dd8565b905061222382826121dc565b919050565b600067ffffffffffffffff821115612243576122426121ad565b5b61224c82611e9e565b9050602081019050919050565b82818337600083830152505050565b600061227b61227684612228565b61220d565b905082815260208101848484011115612297576122966121a8565b5b6122a2848285612259565b509392505050565b600082601f8301126122bf576122be6121a3565b5b81356122cf848260208601612268565b91505092915050565b600080600080608085870312156122f2576122f1611de2565b5b600061230087828801612038565b945050602061231187828801612038565b935050604061232287828801611e0d565b925050606085013567ffffffffffffffff81111561234357612342611de7565b5b61234f878288016122aa565b91505092959194509250565b6000806040838503121561237257612371611de2565b5b600061238085828601612038565b925050602061239185828601612038565b9150509250929050565b600067ffffffffffffffff8211156123b6576123b56121ad565b5b6123bf82611e9e565b9050602081019050919050565b60006123df6123da8461239b565b61220d565b9050828152602081018484840111156123fb576123fa6121a8565b5b612406848285612259565b509392505050565b600082601f830112612423576124226121a3565b5b81356124338482602086016123cc565b91505092915050565b6000806040838503121561245357612452611de2565b5b600061246185828601612038565b925050602083013567ffffffffffffffff81111561248257612481611de7565b5b61248e8582860161240e565b9150509250929050565b7f546f6b656e20494420646f6573206e6f74206578697374000000000000000000600082015250565b60006124ce601783611e5a565b91506124d982612498565b602082019050919050565b600060208201905081810360008301526124fd816124c1565b9050919050565b7f4e487b7100000000000000000000000000000000000000000000000000000000600052602260045260246000fd5b6000600282049050600182168061254b57607f821691505b6020821081141561255f5761255e612504565b5b50919050565b7f4552433732313a20617070726f76616c20746f2063757272656e74206f776e6560008201527f7200000000000000000000000000000000000000000000000000000000000000602082015250565b60006125c1602183611e5a565b91506125cc82612565565b604082019050919050565b600060208201905081810360008301526125f0816125b4565b9050919050565b7f4552433732313a20617070726f76652063616c6c6572206973206e6f7420746f60008201527f6b656e206f776e6572206f7220617070726f76656420666f7220616c6c000000602082015250565b6000612653603d83611e5a565b915061265e826125f7565b604082019050919050565b6000602082019050818103600083015261268281612646565b9050919050565b7f4552433732313a2063616c6c6572206973206e6f7420746f6b656e206f776e6560008201527f72206f7220617070726f76656400000000000000000000000000000000000000602082015250565b60006126e5602d83611e5a565b91506126f082612689565b604082019050919050565b60006020820190508181036000830152612714816126d8565b9050919050565b7f4552433732313a20696e76616c696420746f6b656e2049440000000000000000600082015250565b6000612751601883611e5a565b915061275c8261271b565b602082019050919050565b6000602082019050818103600083015261278081612744565b9050919050565b7f4552433732313a2061646472657373207a65726f206973206e6f74206120766160008201527f6c6964206f776e65720000000000000000000000000000000000000000000000602082015250565b60006127e3602983611e5a565b91506127ee82612787565b604082019050919050565b60006020820190508181036000830152612812816127d6565b9050919050565b600081905092915050565b600061282f82611e4f565b6128398185612819565b9350612849818560208601611e6b565b80840191505092915050565b60006128618285612824565b915061286d8284612824565b91508190509392505050565b7f4f776e61626c653a206e6577206f776e657220697320746865207a65726f206160008201527f6464726573730000000000000000000000000000000000000000000000000000602082015250565b60006128d5602683611e5a565b91506128e082612879565b604082019050919050565b60006020820190508181036000830152612904816128c8565b9050919050565b7f4552433732313a207472616e736665722066726f6d20696e636f72726563742060008201527f6f776e6572000000000000000000000000000000000000000000000000000000602082015250565b6000612967602583611e5a565b91506129728261290b565b604082019050919050565b600060208201905081810360008301526129968161295a565b9050919050565b7f4552433732313a207472616e7366657220746f20746865207a65726f2061646460008201527f7265737300000000000000000000000000000000000000000000000000000000602082015250565b60006129f9602483611e5a565b9150612a048261299d565b604082019050919050565b60006020820190508181036000830152612a28816129ec565b9050919050565b7f4f776e61626c653a2063616c6c6572206973206e6f7420746865206f776e6572600082015250565b6000612a65602083611e5a565b9150612a7082612a2f565b602082019050919050565b60006020820190508181036000830152612a9481612a58565b9050919050565b7f4552433732313a20617070726f766520746f2063616c6c657200000000000000600082015250565b6000612ad1601983611e5a565b9150612adc82612a9b565b602082019050919050565b60006020820190508181036000830152612b0081612ac4565b9050919050565b7f4552433732313a207472616e7366657220746f206e6f6e20455243373231526560008201527f63656976657220696d706c656d656e7465720000000000000000000000000000602082015250565b6000612b63603283611e5a565b9150612b6e82612b07565b604082019050919050565b60006020820190508181036000830152612b9281612b56565b9050919050565b7f4552433732313a206d696e7420746f20746865207a65726f2061646472657373600082015250565b6000612bcf602083611e5a565b9150612bda82612b99565b602082019050919050565b60006020820190508181036000830152612bfe81612bc2565b9050919050565b7f4552433732313a20746f6b656e20616c7265616479206d696e74656400000000600082015250565b6000612c3b601c83611e5a565b9150612c4682612c05565b602082019050919050565b60006020820190508181036000830152612c6a81612c2e565b9050919050565b7f45524337323155524953746f726167653a2055524920736574206f66206e6f6e60008201527f6578697374656e7420746f6b656e000000000000000000000000000000000000602082015250565b6000612ccd602e83611e5a565b9150612cd882612c71565b604082019050919050565b60006020820190508181036000830152612cfc81612cc0565b9050919050565b600081519050919050565b600082825260208201905092915050565b6000612d2a82612d03565b612d348185612d0e565b9350612d44818560208601611e6b565b612d4d81611e9e565b840191505092915050565b6000608082019050612d6d6000830187611ff7565b612d7a6020830186611ff7565b612d87604083018561210d565b8181036060830152612d998184612d1f565b905095945050505050565b600081519050612db381611f36565b92915050565b600060208284031215612dcf57612dce611de2565b5b6000612ddd84828501612da4565b91505092915050565b7f4e487b7100000000000000000000000000000000000000000000000000000000600052601260045260246000fdfea2646970667358221220a1270632866d07a40e5781bab5cf74e618a06091c6bf0bedb5dc93f72b25a4ec64736f6c63430008090033",
  "linkReferences": {},
  "deployedLinkReferences": {}
}